S01C000054696D65725F436F756E7465725F3233313131342E737265633D
S113000045C0000053C0000051C000004FC00000B4
S11300104DC0000003C1000012C1000021C1000056
S113002030C10000EAC0000041C000003FC0000031
S11300303DC000003BC0000039C0000037C00000D4
S1130040C9C0000033C0000031C000002FC0000050
S11300502DC000002BC0000029C0000027C00000F4
S113006025C0000023C0000021C000001FC0000004
S11300701DC000001BC0000019C0000017C0000014
S113008015C0000013C0000011C0000011241FBEE1
S1130090CFEFD0E1DEBFCDBF21E0A0E0B1E001C0F1
S11300A01D92AA30B207E1F702D0FCC0A9CF05D057
S11300B009D00ED0789433D0FECF84B38FEF84BBB5
S11300C085BB089589B7806F89BF8EEB8ABF089579
S11300D087B7816087BF87B7806887BF8DE683BD98
S11300E085E382BF089585B5816085BD85B584604B
S11300F085BD85B5886085BD089583B7816083BF5C
S113010083B7826083BF83B7846083BF089585B556
S1130110887F85BD089583B7887F83BF08958091C4
S11301200901813019F410920901DDDF8091080181
S1130130813019F410920801EADF809107018130BF
S113014019F410920701D9DF80910601813019F466
S113015010920601E0DF809105018130D9F41092FC
S11301600501809100018F5F809300018A3091F432
S113017080910301882319F080EF85BB02C08FE0D2
S113018085BB81E090910301911180E0809303018C
S113019010920001809104018130D9F4109204017D
S11301A0809101018F5F80930101843691F48091E5
S11301B00201882319F08AEA85BB02C085E585BB64
S11301C081E090910201911180E0809302011092EC
S11301D0010108951F920F920FB60F9211248F936D
S11301E0F89485E382BF81E08093050178948F9130
S11301F00F900FBE0F901F9018951F920F920FB67D
S11302000F9211248F93F89481E0809304017894E1
S11302108F910F900FBE0F901F9018951F920F9201
S11302200FB60F9211248F93F89481E08093090103
S113023078948F910F900FBE0F901F9018951F9276
S11302400F920FB60F9211248F93F89481E080934C
S1130250080178948F910F900FBE0F901F901895FE
S11302601F920F920FB60F9211248F93F89481E08E
S11302708093070178948F910F900FBE0F901F9079
S113028018951F920F920FB60F9211248F93F89422
S113029081E08093060178948F910F900FBE0F90A8
S10B02A01F901895F894FFCF9C
S9030000FC
