:1000000045C0000053C0000051C000004FC00000B8
:100010004DC000004BC0000049C0000047C00000B8
:1000200045C0000043C0000041C000003FC00000C8
:100030003EC000003BC0000039C0000037C00000D7
:1000400035C0000033C0000031C000002FC00000E8
:100050002DC000002BC0000029C0000027C00000F8
:1000600025C0000023C0000021C000001FC0000008
:100070001DC000001BC0000019C0000017C0000018
:1000800015C0000013C0000011C0000011241FBEE5
:10009000CFEFD0E1DEBFCDBF21E0A0E0B1E001C0F5
:1000A0001D92A230B207E1F73BD03EC0A9CF1F920C
:1000B0000F920FB60F9211242F933F938F939F931C
:1000C00081E090E02091000130910101232B11F09B
:1000D00080E090E09093010180930001892B19F05A
:1000E0008EEF85BB02C08FEF85BB1DBC1CBC9F91F2
:1000F0008F913F912F910F900FBE0F901F901895E9
:1001000081E084BB8FEF85BB08958FEF9FE79BBD98
:100110008ABD8EB584608EBD87B7806187BF089524
:0C012000EFDFF3DF7894FFCFF894FFCFFF
:00000001FF
