:1000000063C000007EC000007CC000007AC0000019
:1000100078C000004BC200005AC2000072C000004D
:1000200070C000006EC000006CC000006AC000001C
:1000300068C0000066C0000064C0000062C000002C
:1000400060C000005EC000005CC000005AC000003C
:1000500058C0000056C0000054C0000052C000004C
:1000600050C000004EC000004CC000004AC000005C
:1000700048C0000046C0000044C0000042C000006C
:1000800040C000003EC000003CC0000053756E4DF3
:100090006F6E54756557656454687546726953612F
:1000A00074004A616E4665624D61724170724D61C5
:1000B000794A756E4A756C4175675365704F637404
:1000C0004E6F76446563000011241FBECFEFD0E170
:1000D000DEBFCDBF11E0A0E0B1E0E6E7F7E000E071
:1000E0000BBF02C007900D92AC30B107D9F721E0E9
:1000F000ACE0B1E001C01D92A933B207E1F782D2B2
:1001000038C37ECFCF93DF93CDB7DEB72C970FB632
:10011000F894DEBF0FBECDBFBE016F5F7F4F1AD018
:100120006091000170910101CE01019663D0809130
:100130000001909101012C960FB6F894DEBF0FBE1E
:10014000CDBFDF91CF9108956DE071E003D08DE0D8
:1001500091E00895CF92DF92EF92FF920F931F9359
:10016000CF93DF9300D000D0CDB7DEB76C017B0119
:10017000E0913701F0913801309729F069E171E0A1
:1001800009958C0102C00FEF1FEFF60140815181EC
:10019000628173818091190190911A01A0911B01D4
:1001A000B0911C01840F951FA61FB71F10161106D2
:1001B0004CF4A801012E000C660B770B840F951FE1
:1001C000A61FB71F89839A83AB83BC83B701CE0177
:1001D00001968AD0F701138702870F900F900F9036
:1001E0000F90DF91CF911F910F91FF90EF90DF90D3
:1001F000CF900895CF92DF92EF92FF920F931F93CB
:10020000CF93DF938C01EB01FC018481B82FBB0FEE
:10021000B80F8581782F770F780F9E0140E08B2FE4
:10022000840F90E0A0E084579F4FAF4FFC015A2FFE
:1002300099D2F90161939F01872F840F90E0A0E08C
:100240008E559F4FAF4FFC015A2F8CD2F90163831B
:100250004F5F433021F780E28F838B83BE01685F5D
:100260007F4FF801838140E2082E000C990B0DD1DD
:10027000BE01655F7F4FF80182814AE3082E000CC2
:10028000990B03D1BE01625F7F4FF80181814AE380
:10029000082E000C990BF9D0BE016F5E7F4FF8015C
:1002A000808140E2082E000C990BEFD0F801868186
:1002B000978164E670E08459984FEFD16B017C011F
:1002C000BE016C5E7F4F40E2C601DFD0BE016A5EB8
:1002D0007F4F40E0C701DF91CF911F910F91FF90B9
:1002E000EF90DF90CF90D1C0CF92DF92EF92FF924C
:1002F0000F931F93CF93DF93CDB7DEB728970FB639
:10030000F894DEBF0FBECDBF8B01FC01608171810F
:100310008281938120E831E541E050E0E5D1690137
:100320007A012CE330E040E050E000D229833A83A8
:100330004B835C8389819A81AB81BC81F8016083A6
:100340006CE370E0AAD1DC01CB01F801A1838283C8
:10035000C601069667E070E0B3D184832DEA3EE8DB
:1003600040E050E0C701B601E1D129833A836D83B3
:100370007E838F83988789819A8124E6289F6001F4
:10038000299FD00C11246D817E818F81988525EB6A
:1003900035E040E050E0CAD129833A836D837E8303
:1003A000E980FA80EE0CFF1CEE0CFF1CEC0CFD1C2F
:1003B0008D819E81F5E6EF16F10410F0019604C0E0
:1003C00024E6E216F10419F021E030E002C020E05A
:1003D00030E0A90144595E4F4817590760F46DE6B3
:1003E00071E0821B930B59D1DC01CB01E80EF91EA1
:1003F000CD0120E030E044E6E40EF11CF801F78284
:10040000E68291878087255C3F4F8217930740F4EF
:100410006FE170E042D1DC01CB01F80185831FC0A0
:1004200069E970E0821B930B38D1DC01CB01F82E17
:10043000FF0CFF0CF80E6DE370E0CD012ED1DC0156
:10044000CB01E82EEE0C6FE170E0CD0126D1DC018E
:10045000CB0122E0280FF20EFE0CF801F582A383F7
:10046000F8011386128683818F5F838328960FB6E7
:10047000F894DEBF0FBECDBFDF91CF911F910F91DA
:10048000FF90EF90DF90CF9008951F93CF93DF936D
:10049000EB01142F6AE070E000D1605D6883805D3D
:1004A00089831A83DF91CF911F9108951F920F9234
:1004B0000FB60F9211248F93F89481E080930C0172
:1004C00078948F910F900FBE0F901F9018951F92E8
:1004D0000F920FB60F9211248F93F89485E585BB88
:1004E00078948F910F900FBE0F901F901895EF92F8
:1004F000FF920F931F93CF93DF9368EE73E0CDD0FD
:100500007B0164E670E0C9D09B016AE070E0C5D071
:10051000DC0140E050E06BC0C5E6D0E088E08883B5
:10052000CD018E5F9E4FFC019081F0E19F9F800185
:10053000112482B38F70082B02BB88B390778F7021
:10054000892B88BB8FE19EE40197F1F700C0000082
:1005500084E08883CB018E5F9E4FFC018081F0E1B7
:100560008F9F8001112492B39F70092B02BB98B317
:1005700080779F70982B98BB8FE19EE40197F1F7ED
:1005800000C0000082E08883C9018E5F9E4FFC019D
:100590008081F0E18F9F8001112492B39F70092B1D
:1005A00002BB98B380779F70982B98BB8FE19EE435
:1005B0000197F1F700C0000081E08883E701CE5F7A
:1005C000DE4F888190E1899FE001112492B39F70F2
:1005D000C92BC2BB98B380779F70982B98BBEFE173
:1005E000FEE43197F1F700C000004F5F5F4F4230EB
:1005F00051050CF491CFDF91CF911F910F91FF9096
:10060000EF900895CF93DF9300D000D0CDB7DEB741
:1006100087B3806F87BB81B3806F81BBE4E6F0E076
:1006200080818F60808389B7806F89BF8AEA8ABFA3
:1006300018BA12BA109265007894CE01019662DD64
:10064000CE01019681DD7C0100E010E0F801EE5F53
:10065000FE4F908180E1989F9001112482B38F70AA
:10066000282B22BB88B390778F70892B88BBC80159
:100670003EDF80910C01813049F710920C01F701A7
:100680008281F4E68F02000D111D1124F701818192
:10069000080F111D87FD1A95D9CF97FB072E16F469
:1006A000009406D077FD08D00BD007FC05D03EF4AF
:1006B000909581959F4F0895709561957F4F08950E
:1006C000AA1BBB1B51E107C0AA1FBB1FA617B70778
:1006D00010F0A61BB70B881F991F5A95A9F7809594
:1006E0009095BC01CD010895A1E21A2EAA1BBB1B57
:1006F000FD010DC0AA1FBB1FEE1FFF1FA217B307EE
:10070000E407F50720F0A21BB30BE40BF50B661F03
:10071000771F881F991F1A9469F7609570958095C7
:1007200090959B01AC01BD01CF010895052E97FB6B
:1007300016F400940FD057FD05D0D6DF07FC02D089
:1007400046F408C050954095309521953F4F4F4F46
:100750005F4F089590958095709561957F4F8F4F6D
:100760009F4F089557FD03C05BBF67910895608157
:060770000895F894FFCF8C
:0C0776001D013F065B4F666D7D077F6F25
:00000001FF
