S01300006932635F70726F6A6563742E73726563BD
S113000045C0000060C000005EC000005CC000008D
S11300105AC0000058C0000056C0000054C0000080
S113002052C0000050C000004EC000004CC0000090
S11300304AC0000048C0000046C0000044C00000A0
S113004042C0000040C000003EC000003CC00000B0
S11300503AC0000038C0000036C0000034C00000C0
S113006032C0000030C000002EC000002CC00000D0
S11300702AC0000028C0000026C0000024C00000E0
S113008022C0000020C000001EC0000011241FBEBA
S1130090CFEFD0E1DEBFCDBF11E0A0E0B1E0E6E5F7
S11300A0F4E000E00BBF02C007900D92A630B10748
S11300B0D9F721E0A6E0B1E001C01D92A930B20752
S11300C0E1F762D1C6C19CCF81B3816081BB81B3AA
S11300D0826081BB82B3826082BB82B3816082BB57
S11300E080E28A95F1F782B38D7F82BB80E28A95A4
S11300F0F1F782B38E7F82BB089581B3816081BBA7
S113010081B3826081BB82B38D7F82BB82B3816005
S113011082BB80E28A95F1F782B3826082BB80E27F
S11301208A95F1F782B38E7F82BB0895CF93DF93D4
S1130130D82F81B3826081BBC0E024C01AD18D2F37
S113014090E00C2E02C0880F991F0A94E2F787FFF3
S113015004C082B3826082BB03C082B38D7F82BB42
S113016080E18A95F1F782B3816082BB8AE18A9546
S1130170F1F700C082B38E7F82BB8AE18A95F1F7E2
S113018000C0CF5FC730D0F28D2F90E002C0880F3F
S1130190991FCA95E2F787FF04C082B3826082BBCD
S11301A003C082B38D7F82BB80E18A95F1F782B36D
S11301B0816082BB8AE18A95F1F700C082B38E7FA9
S11301C082BB8AE18A95F1F700C0DF91CF9108954F
S11301D081B38D7F81BB82B3816082BB90E013C009
S11301E020B3822F827021FD0DC090E29A95F1F721
S11301F092B39E7F92BB91B3926091BB90E29A9529
S1130200F1F708959F5F943158F380E28A95F1F7EE
S113021082B38E7F82BB81B3826081BB90E29A9568
S1130220F1F782E00895CF93DF9381B38D7F81BB93
S1130230C0E0D0E016C09DD082B3816082BB85E36C
S11302408A95F1F7000082B38E7F82BB80B38695D6
S11302508170D82BC73009F0DD0F80E18A95F1F762
S1130260CF5FC83040F38D2FDF91CF91089591B3C4
S1130270926091BB811104C082B38D7F82BB05C0A3
S1130280823019F482B3826082BB80E18A95F1F7EF
S113029082B3816082BB8AE18A95F1F700C082B3A0
S11302A08E7F82BB8AE18A95F1F700C0089571FDC3
S11302B004C070FD04C090E003C094E001C092E06B
S11302C0492B842B33DF84DF80930601823009F4C9
S11302D014CF08952BDF7CDF80930601823009F46C
S11302E00CCF089523DF74DF8093060108950F93E4
S11302F01F93CF93DF938C01D62FC0E009C0F80180
S1130300EC0FF11D808112DF63DF80930601CF5F64
S1130310CD17A8F3DF91CF911F910F910895CF933B
S113032082DFC82F82E0A3DF8C2F2CD0CF910895D9
S11303301F93CF93DF93182FD0E0C0E007C073DF83
S1130340D82F80E094DF8D2F1DD0CF5FC117B8F375
S113035082E08DDF8D2F16D0DF91CF911F9108950C
S1130360282F30E0220F331F881F8827881F822BF5
S113037008958091000185BB80910001F1DF809395
S11303800001089585BB089581B3816081BB81B369
S1130390826081BB8FEF84BB12B885BB91B190930F
S11303A0070180910801807F803F79F494FD0DC09E
S11303B08BDE40E061E072E080EA79DF81E092E088
S11303C089DF8FEF8FDF99DE3FC0803F89F495FD91
S11303D00FC07ADE40E061E072E080EA68DF81E02D
S11303E092E078DF65E081E091E081DF86DE2CC079
S11303F0803FA1F496FD12C067DE40E061E072E048
S113040080EA55DF81E092E065DF5EDE41E061E095
S113041072E080EA4CDF83DF70DE16C0803FA1F417
S1130420992394F051DE40E061E072E080EA3FDF1E
S113043081E092E04FDF48DE41E061E072E080EA73
S113044036DF85E075DF59DE80910701809308016E
S1090450A5CFF894FFCFD4
S1090456FEFFFEFDFCFBAD
S9030000FC
