S01300006932635F70726F6A6563742E73726563BD
S113000045C0000060C000005EC000005CC000008D
S11300105AC0000058C0000056C0000054C0000080
S113002052C0000050C000004EC000004CC0000090
S11300304AC0000048C0000046C0000044C00000A0
S113004042C0000040C000003EC000003CC00000B0
S11300503AC0000038C0000036C0000034C00000C0
S113006032C0000030C000002EC000002CC00000D0
S11300702AC0000028C0000026C0000024C00000E0
S113008022C0000020C000001EC0000011241FBEBA
S1130090CFEFD0E1DEBFCDBF11E0A0E0B1E0ECE8EE
S11300A0F3E000E00BBF02C007900D92A630B10749
S11300B0D9F721E0A6E0B1E001C01D92A730B20754
S11300C0E1F7F8D061C19CCF81B3816081BB81B37A
S11300D0826081BB82B3826082BB82B3816082BB57
S11300E082B38D7F82BB82B38E7F82BB089581B33E
S11300F0816081BB81B3826081BB82B38D7F82BB0F
S113010082B3816082BB82B3826082BB82B38E7F02
S113011082BB0895CF93DF93D82F81B3826081BBD4
S1130120C0E019C0B2D08D2F90E00C2E02C0880F11
S1130130991F0A94E2F787FF04C082B3826082BBEE
S113014003C082B38D7F82BB82B3816082BB82B3E2
S11301508E7F82BBCF5FC83028F3DF91CF910895A3
S1130160CF9381B38D7F81BB82B3816082BB80E0FA
S11301700BC090B3C92FC27091FD05C095D082B356
S11301808E7F82BB08C08F5F843198F390D082B396
S11301908E7F82BBC2E08C2FCF910895CF93DF93E3
S11301A081B38D7F81BB82B3816082BBC0E0D0E02C
S11301B006C06BD080B386958170D82BCF5FC830D2
S11301C0C0F382B38E7F82BB8D2FDF91CF910895D0
S11301D091B3926091BB811105C066D082B38D7FCB
S11301E082BB06C0823021F462D082B3826082BBBB
S11301F082B3816082BB82B38E7F82BB089580EA22
S113020089DFAEDF80930601823009F470CF089550
S113021080E080DFA5DF80930601823009F467CF98
S113022008958FEF77DF9CDF8093060108950F9385
S11302301F93CF93DF938C01D62FC0E012C0F80137
S1130240EC0FF11D808166DF8BDF809306012FEFB9
S113025089E698E1215080409040E1F700C0000019
S1130260CF5FCD1760F3DF91CF911F910F91089568
S113027095DF82E0ADCF0895282F30E0220F331FA1
S1130280881F8827881F822B08958091000185BBD1
S113029080910001F1DF809300018FE79EE30197D5
S11302A0F1F700C0000008958FEB85BB08958FE738
S11302B085BB089581B3816081BB81B3826081BBBA
S11302C08FEF84BB12B885BBC0EA0C9925C0FCDE55
S11302D0CE7F8C2F94DF2FEF83ED90E3215080406D
S11302E09040E1F700C0000080E092DF2FEF83ED43
S11302F090E3215080409040E1F700C000008FEF70
S113030090DF2FEF83ED90E3215080409040E1F7A0
S113031000C00000ECDED9CF0D9927C0D5DECE7F1A
S11303208C2F6DDF2FEF83ED90E3215080409040C0
S1130330E1F700C0000080E06BDF2FEF83ED90E376
S1130340215080409040E1F700C0000065E081E06A
S113035091E06DDF2FEF83ED90E3215080409040DA
S1130360E1F700C00000C3DEB0CF0F99AECFACDE22
S1130370CE7F8C2F44DF80E04BDFA6DEC1608C2F64
S10F03803EDF76DFB4DEA1CFF894FFCF9F
S109038CFEFFFEFDFCFB78
S9030000FC
