:1000000045C0000060C000005EC000005CC0000091
:100010005AC0000058C0000056C0000054C0000084
:1000200052C0000050C000004EC000004CC0000094
:100030004AC0000048C0000046C0000044C00000A4
:1000400042C0000040C000003EC000003CC00000B4
:100050003AC0000038C0000036C0000034C00000C4
:1000600032C0000030C000002EC000002CC00000D4
:100070002AC0000028C0000026C0000024C00000E4
:1000800022C0000020C000001EC0000011241FBEBE
:10009000CFEFD0E1DEBFCDBF11E0A0E0B1E0E2ECF8
:1000A000F2E000E00BBF02C007900D92A230B10752
:1000B000D9F721E0A2E0B1E001C01D92A330B20760
:1000C000E1F7D7D0FCC09CCF81B3816081BB81B305
:1000D000826081BB82B3826082BB82B3816082BB5B
:1000E00082B38D7F82BB82B38E7F82BB089581B342
:1000F000816081BB81B3826081BB82B38D7F82BB13
:1001000082B3816082BB82B3826082BB82B38E7F06
:1001100082BB0895CF93DF93D82F81B3826081BBD8
:10012000C0E019C091D08D2F90E00C2E02C0880F36
:10013000991F0A94E2F787FF04C082B3826082BBF2
:1001400003C082B38D7F82BB82B3816082BB82B3E6
:100150008E7F82BBCF5FC83028F3DF91CF910895A7
:10016000CF9381B38D7F81BB82B3816082BB80E0FE
:100170000BC090B3C92FC27091FD05C074D082B37B
:100180008E7F82BB08C08F5F843198F36FD082B3BB
:100190008E7F82BBC2E08C2FCF910895CF93DF93E7
:1001A00081B38D7F81BB82B3816082BBC0E0D0E030
:1001B00006C04AD080B386958170D82BCF5FC830F7
:1001C000C0F382B38E7F82BB8D2FDF91CF910895D4
:1001D00091B3926091BB811105C045D082B38D7FF0
:1001E00082BB06C0823021F441D082B3826082BBE0
:1001F00082B3816082BB82B38E7F82BB089580EA26
:1002000089DFAEDF80930201823009F470CF089558
:1002100080E080DFA5DF80930201823009F467CFA0
:1002200008958FEF77DF9CDF809302010895B6DF9A
:1002300082E0CECF0895282F30E0220F331F881F91
:100240008827881F822B08958091000185BB8091AB
:100250000001F1DF809300018FE79EE30197F1F742
:1002600000C0000008958FEB85BB08958FE785BB24
:10027000089581B3816081BB81B3826081BB8FEFC0
:1002800084BB12B885BBC0EA0C990AC01DDFCE7FC3
:100290008C2FB5DF80E0BCDF8FEFC3DF28DFF4CF2A
:1002A0000F99F2CF11DFCE7F8C2FA9DF80E0B0DF76
:1002B0000BDFC1608C2FA3DFBADF19DFE5CFF89425
:0202C000FFCF6E
:0202C200FE003C
:00000001FF
