S01300006932635F70726F6A6563742E73726563BD
S113000045C0000060C000005EC000005CC000008D
S11300105AC0000058C0000056C0000054C0000080
S113002052C0000050C000004EC000004CC0000090
S11300304AC0000048C0000046C0000044C00000A0
S113004042C0000040C000003EC000003CC00000B0
S11300503AC0000038C0000036C0000034C00000C0
S113006032C0000030C000002EC000002CC00000D0
S11300702AC0000028C0000026C0000024C00000E0
S113008022C0000020C000001EC0000011241FBEBA
S1130090CFEFD0E1DEBFCDBF11E0A0E0B1E0E8E7F3
S11300A0F4E000E00BBF02C007900D92A630B10748
S11300B0D9F721E0A6E0B1E001C01D92A730B20754
S11300C0E1F761D1D7C19CCF81B3816081BB81B39A
S11300D0826081BB82B3826082BB82B3816082BB57
S11300E080E28A95F1F782B38D7F82BB80E28A95A4
S11300F0F1F782B38E7F82BB089581B3816081BBA7
S113010081B3826081BB82B38D7F82BB82B3816005
S113011082BB80E28A95F1F782B3826082BB80E27F
S11301208A95F1F782B38E7F82BB0895CF93DF93D4
S1130130D82F81B3826081BBC0E024C019D18D2F38
S113014090E00C2E02C0880F991F0A94E2F787FFF3
S113015004C082B3826082BB03C082B38D7F82BB42
S113016085E18A95F1F7000082B3816082BB80E16A
S11301708A95F1F782B38E7F82BB85E18A95F1F788
S11301800000CF5FC730D0F28D2F90E002C0880FFF
S1130190991FCA95E2F787FF04C082B3826082BBCD
S11301A003C082B38D7F82BB85E18A95F1F700009D
S11301B082B3816082BB80E18A95F1F782B38E7F3E
S11301C082BB85E18A95F1F70000DF91CF91089514
S11301D081B38D7F81BB8AE18A95F1F700C082B338
S11301E0816082BB20E011C090B3892F827091FDA1
S11301F00BC092B39E7F92BB91B3926091BB9AE184
S11302009A95F1F700C008952F5F243668F382B3FE
S11302108E7F82BB81B3826081BB8AE18A95F1F7CC
S113022000C082E00895CF93DF9381B38D7F81BBBB
S1130230C0E0D0E017C09CD085E18A95F1F70000BA
S113024082B3816082BB85E38A95F1F7000082B3B3
S11302508E7F82BB80B386958170D82BC73009F01E
S1130260DD0FCF5FC83038F38D2FDF91CF91089524
S113027091B3926091BB811104C082B38D7F82BB24
S113028005C0823019F482B3826082BB85E18A950D
S1130290F1F7000082B3816082BB8AE18A95F1F7AD
S11302A000C082B38E7F82BB8AE18A95F1F700C0D9
S11302B0089571FD04C070FD04C090E003C094E093
S11302C001C092E0492B842B31DF82DF8093060149
S11302D0823009F412CF089529DF7ADF8093060172
S11302E0823009F40ACF089521DF72DF809306017A
S11302F008950F931F93CF93DF938C01D62FC0E003
S113030009C0F801EC0FF11D808110DF61DF8093DB
S11303100601CF5FCD17A8F3DF91CF911F910F9105
S11303200895CF9380DFC82F82E0A2DF8C2F29D0DD
S1130330CF9108951F93CF93DF93182FC0E007C088
S113034072DFD82F80E094DF8D2F1BD0CF5FC117D1
S1130350B8F382E08DDFDF91CF911F910895282FAC
S113036030E0220F331F881F8827881F822B0895AF
S11303708091000185BB80910001F1DF8093000131
S1130380089585BB089581B3816081BB81B3826088
S113039081BB8FEF84BB12B885BB0C9916C094DE69
S11303A040E061E072E080EA84DF81E092E094DF83
S11303B08FEF9ADFA2DE2FEF8BE792E92150804086
S11303C09040E1F700C00000E8CF0D9918C07CDE32
S11303D040E061E072E080EA6CDF81E092E07CDF83
S11303E065E081E091E085DF88DE2FEF8BE792E91D
S11303F0215080409040E1F700C00000CECF0E991C
S11304001BC062DE40E061E072E080EA52DF81E01E
S113041092E062DF59DE41E061E072E080EA49DFA8
S113042080DF6BDE2FEF8BE792E921508040904014
S1130430E1F700C00000B1CF0F99AFCF45DE40E037
S113044061E072E080EA35DF81E092E045DF3CDE86
S113045041E061E072E080EA2CDF85E06BDF4DDE95
S11304602FEF8BE792E9215080409040E1F700C0E4
S10B0470000093CFF894FFCFC4
S1090478FEFFFEFDFCFB8B
S9030000FC
