:1000000045C0000060C000005EC000005CC0000091
:100010005AC0000058C0000056C0000054C0000084
:1000200052C0000050C000004EC000004CC0000094
:100030004AC0000048C0000046C0000044C00000A4
:1000400042C0000040C000003EC000003CC00000B4
:100050003AC0000038C0000036C0000034C00000C4
:1000600032C0000030C000002EC000002CC00000D4
:100070002AC0000028C0000026C0000024C00000E4
:1000800022C0000020C000001EC0000011241FBEBE
:10009000CFEFD0E1DEBFCDBF11E0A0E0B1E0EAEBF1
:1000A000F3E000E00BBF02C007900D92A630B1074D
:1000B000D9F721E0A6E0B1E001C01D92A730B20758
:1000C000E1F72CD178C19CCF81B3816081BB81B332
:1000D000826081BB82B3826082BB82B3816082BB5B
:1000E00080E28A95F1F782B38D7F82BB80E28A95A8
:1000F000F1F782B38E7F82BB089581B3816081BBAB
:1001000081B3826081BB82B38D7F82BB82B3816009
:1001100082BB80E28A95F1F782B3826082BB80E283
:100120008A95F1F782B38E7F82BB0895CF93DF93D8
:10013000D82F81B3826081BBC0E01FC0DED08D2F7D
:1001400090E00C2E02C0880F991F0A94E2F787FFF7
:1001500004C082B3826082BB03C082B38D7F82BB46
:1001600082B3816082BB80E28A95F1F782B38E7F91
:1001700082BB80E28A95F1F7CF5FC830F8F2DF9159
:10018000CF910895CF9381B38D7F81BB82B381607E
:1001900082BB80E28A95F1F780E00EC090B3C92F50
:1001A000C27091FD08C0B2D082B38E7F82BB80E264
:1001B0008A95F1F70BC08F5F843180F3AAD082B3A8
:1001C0008E7F82BB80E28A95F1F7C2E08C2FCF91BF
:1001D0000895CF93DF9381B38D7F81BB82B381601C
:1001E00082BB80E28A95F1F7C0E0D0E006C085D0FE
:1001F00080B386958170D82BCF5FC830C0F382B3AF
:100200008E7F82BB80E28A95F1F78D2FDF91CF91AF
:10021000089591B3926091BB811105C077D082B3EC
:100220008D7F82BB06C0823021F473D082B382609E
:1002300082BB82B3816082BB80E28A95F1F782B390
:100240008E7F82BB80E28A95F1F7089580EA6EDFA7
:1002500099DF80930601823009F44FCF089580E042
:1002600065DF90DF80930601823009F446CF089560
:100270008FEF5CDF87DF8093060108950F931F9354
:10028000CF93DF938C01D62FC0E009C0F801EC0FAB
:10029000F11D80814BDF76DF80930601CF5FCD17A4
:1002A000A8F3DF91CF911F910F910895CF9391DF24
:1002B000C82F82E0AEDF8C2F2FD0CF9108951F93EF
:1002C000CF93DF93182FC0E007C083DFD82F80E0E3
:1002D000A0DF8D2F21D0CF5FC117B8F382E099DF67
:1002E000DF91CF911F910895282F30E0220F331F07
:1002F000881F8827881F822B08958091000185BB65
:1003000080910001F1DF8093000108958FEB85BBA0
:1003100008958FE785BB089585BB089581B38160FB
:1003200081BB81B3826081BB8FEF84BB12B885BB78
:10033000C0EA0C9913C0C8DECE7F8C2F87DF80E027
:100340008EDF8FEF95DFD9DE2FEF8BE792E921501B
:1003500080409040E1F700C00000EBCF0D990CC049
:10036000B3DECE7F8C2F72DF80E079DF65E081E045
:1003700091E084DFC2DEDDCF0E990DC0A5DECE7F19
:100380008C2F64DF80E06BDF9FDEC1608C2F5EDF2F
:100390008DDFB3DECECF0F99CCCF96DECE7F8C2F04
:1003A00055DF80E05CDF90DEC1608C2F4FDF85E0A1
:0A03B00086DFA3DEBECFF894FFCF76
:0603BA00FEFFFEFDFCFB4E
:00000001FF
