S01300006932635F70726F6A6563742E73726563BD
S113000045C0000060C000005EC000005CC000008D
S11300105AC0000058C0000056C0000054C0000080
S113002052C0000050C000004EC000004CC0000090
S11300304AC0000048C0000046C0000044C00000A0
S113004042C0000040C000003EC000003CC00000B0
S11300503AC0000038C0000036C0000034C00000C0
S113006032C0000030C000002EC000002CC00000D0
S11300702AC0000028C0000026C0000024C00000E0
S113008022C0000020C000001EC0000011241FBEBA
S1130090CFEFD0E1DEBFCDBF11E0A0E0B1E0E2E2FE
S11300A0F4E000E00BBF02C007900D92A630B10748
S11300B0D9F721E0A6E0B1E001C01D92A730B20754
S11300C0E1F746D1ACC19CCF81B3816081BB81B3E0
S11300D0826081BB82B3826082BB82B3816082BB57
S11300E080E28A95F1F782B38D7F82BB80E28A95A4
S11300F0F1F782B38E7F82BB089581B3816081BBA7
S113010081B3826081BB82B38D7F82BB82B3816005
S113011082BB80E28A95F1F782B3826082BB80E27F
S11301208A95F1F782B38E7F82BB0895CF93DF93D4
S1130130D82F81B3826081BBC0E025C0F8D08D2F59
S113014090E00C2E02C0880F991F0A94E2F787FFF3
S113015004C082B3826082BB03C082B38D7F82BB42
S113016085E18A95F1F7000082B3816082BB85E165
S11301708A95F1F7000082B38E7F82BB85E18A9570
S1130180F1F70000CF5FC830C8F2DF91CF91089536
S1130190CF9381B38D7F81BB85E18A95F1F7000010
S11301A082B3816082BB85E18A95F1F7000080E02B
S11301B00FC090B3C92FC27091FD09C0C1D082B3E2
S11301C08E7F82BB85E18A95F1F700000CC08F5FBA
S11301D0843178F3B8D085E18A95F1F7000082B3D1
S11301E08E7F82BBC2E08C2FCF910895CF93DF9393
S11301F081B38D7F81BB85E18A95F1F7000082B3DD
S1130200816082BB85E18A95F1F70000C0E0D0E00F
S113021009C08DD080B386958170D82BC73009F082
S1130220DD0FCF5FC830A8F385E18A95F1F70000B0
S113023082B38E7F82BB8D2FDF91CF91089591B3CE
S1130240926091BB95E19A95F1F70000811105C088
S113025077D082B38D7F82BB06C0823021F473D005
S113026082B3826082BB85E18A95F1F7000082B394
S1130270816082BB95E19A95F1F7000082B38E7F8D
S113028082BB0895862B52DF83DF80930601823080
S113029009F433CF08954ADF7BDF8093060182306F
S11302A009F42BCF089542DF73DF8093060108958C
S11302B00F931F93CF93DF938C01D62FC0E009C017
S11302C0F801EC0FF11D808131DF62DF80930601BC
S11302D0CF5FCD17A8F3DF91CF911F910F910895B0
S11302E0CF9384DFC82F82E0AADF8C2F2FD0CF9149
S11302F008951F93CF93DF93182FC0E007C076DFD4
S1130300D82F80E09CDF8D2F21D0CF5FC117B8F3A9
S113031082E095DFDF91CF911F910895282F30E07F
S1130320220F331F881F8827881F822B08958091EE
S1130330000185BB80910001F1DF809300010895E5
S11303408FEB85BB08958FE785BB089585BB089522
S113035081B3816081BB81B3826081BB8FEF84BB39
S113036012B885BB0C9913C0AFDE60E080EA8ADF67
S113037080E091DF8FEF97DFC0DE2FEF8BE792E90C
S1130380215080409040E1F700C00000EBCF0D9970
S113039015C09ADE60E080EA75DF80E07CDF65E00E
S11303A081E091E085DFA9DE2FEF8BE792E9215010
S11303B080409040E1F700C00000D4CF0E9916C0F1
S11303C083DE60E080EA5EDF80E065DF7DDE61E0A1
S11303D080EA58DF85DF91DE2FEF8BE792E9215029
S11303E080409040E1F700C00000BCCF0F99BACF25
S11303F06BDE60E080EA46DF80E04DDF65DE61E0D1
S113040080EA40DF85E075DF78DE2FEF8BE792E945
S1130410215080409040E1F700C00000A3CFF89441
S1050420FFCF08
S1090422FEFFFEFDFCFBE1
S9030000FC
