:1000000045C0000060C000005EC000005CC0000091
:100010005AC0000058C0000056C0000054C0000084
:1000200052C0000050C000004EC000004CC0000094
:100030004AC0000048C0000046C0000044C00000A4
:1000400042C0000040C000003EC000003CC00000B4
:100050003AC0000038C0000036C0000034C00000C4
:1000600032C0000030C000002EC000002CC00000D4
:100070002AC0000028C0000026C0000024C00000E4
:1000800022C0000020C000001EC0000011241FBEBE
:10009000CFEFD0E1DEBFCDBF11E0A0E0B1E0E6E8F8
:1000A000F2E000E00BBF02C007900D92A230B10752
:1000B000D9F721E0A2E0B1E001C01D92A330B20760
:1000C000E1F7B6D0DEC09CCF82B3826082BB82B340
:1000D000816082BB82B38D7F82BB82B38E7F82BB05
:1000E000089582B38D7F82BB82B3816082BB82B36D
:1000F000826082BB82B38E7F82BB0895CF93DF93F1
:10010000D82F81B3826081BBC0E019C088D08D2F09
:1001100090E00C2E02C0880F991F0A94E2F787FF27
:1001200004C082B3806282BB03C082B38D7F82BB76
:1001300082B3816082BB82B38E7F82BBCF5FC830C7
:1001400028F3DF91CF910895CF9381B38D7F81BB49
:1001500082B3816082BB80E00BC090B3C92FC270B4
:1001600091FD05C060D082B38E7F82BB08C08F5FD7
:10017000843198F35BD082B38E7F82BBC2E08C2F38
:10018000CF910895CF93DF9381B38D7F81BB82B3ED
:10019000816082BBC0E0D0E006C041D080B38695CC
:1001A0008170D82BCF5FC830C0F382B38E7F82BB03
:1001B0008D2FDF91CF91089591B3926091BB811102
:1001C00005C031D082B38D7F82BB06C0823021F45E
:1001D0002DD082B3826082BB82B3816082BB82B346
:1001E0008E7F82BB089580EA89DFAEDF80930201B3
:1001F000823009F476CF089580E080DFA5DF809318
:100200000201823009F46DCF08958FEF77DF9CDF14
:10021000809302010895B6DF82E0CECF08958091E9
:10022000000185BB08958FEF85BB089515BA089529
:1002300081B3816081BB81B3826081BB8FEF84BB5E
:1002400082B18F7082B9C0EA0C9B0AC03DDFCE7FBD
:100250008C2FC9DF80E0D0DF8FEFD7DF42DFF4CF14
:1002600091B19077903781F72FDFCE7F8C2FBBDF56
:1002700080E0C2DF29DFC1608C2FB5DFCCDF31DF4A
:06028000E3CFF894FFCF6C
:02028600FE0078
:00000001FF
