:1000000045C0000060C000005EC000005CC0000091
:100010005AC0000059C00000B5C0000054C0000024
:1000200052C0000050C000004EC000004CC0000094
:100030004AC0000048C0000046C0000044C00000A4
:10004000C1C0000040C000003EC000003CC0000035
:100050003AC0000038C0000036C0000034C00000C4
:1000600032C0000030C000002EC000002CC00000D4
:100070002AC0000028C0000026C0000024C00000E4
:1000800022C0000020C000001EC0000011241FBEBE
:10009000CFEFD0E1DEBFCDBF11E0A0E0B1E0E4E3FF
:1000A000F4E000E00BBF02C007900D92AA30B10748
:1000B000D9F721E0AAE0B1E001C01D92A031B2075A
:1000C000E1F7A1D1B5C19CCF1F920F920FB60F924D
:1000D00011242F933F938F939F93F8948EEF85BBBA
:1000E00080910A01811110C090910C019F5F29E855
:1000F000929F212D11242295269527703CE3239F62
:100100009019112490930C01813081F490910C018D
:10011000965F29E8929F212D11242295269527701C
:100120003CE3239F9019112490930C01823079F4C1
:1001300090910B019F5F2BEA929F212D1124229514
:100140002F7038E1239F9019112490930B01833075
:1001500079F480910B01865F9BEA899F912D112490
:1001600092959F7028E1929F8019112480930B0132
:1001700078949F918F913F912F910F900FBE0F9088
:100180001F9018951F920F920FB60F9211248F9304
:100190009F93F8948CEF85BB80910A0190E00196C3
:1001A00083709078992324F401978C6F9F6F019648
:1001B00080930A0178949F918F910F900FBE0F90BA
:1001C0001F9018951F920F920FB60F9211240BB625
:1001D0000F922F933F934F935F936F937F938F93E0
:1001E0009F93AF93BF93EF93FF93F89440910E01C9
:1001F00050910F014E5F5F4F9A01369527953695C6
:10020000279536952795A5ECB0E203D19C01329550
:1002100022952F7023273F70232790910D01920F75
:10022000E8EEF3E02E9FB0012F9F700D3E9F700D02
:100230001124461B570B50930F0140930E0189E880
:10024000989F312D112432953695377020910C01ED
:10025000230F4CE3349F9019112490930D01289F94
:10026000812D112482958695877090910B01980FAE
:10027000849F2019112420930C018BEA989F812DD3
:10028000112482958F7028E1829F901911249093F8
:100290000B0183E882BF7894FF91EF91BF91AF91FA
:1002A0009F918F917F916F915F914F913F912F918E
:1002B0000F900BBE0F900FBE0F901F90189584B338
:1002C0009FEF94BB87B3806F87BB81B3806F81BB87
:1002D000E4E6F0E080818F60808395BB18BA12BAA3
:1002E0008FE08093650008958AB78A608ABF89B7D6
:1002F000806389BF089583B7866083BF83E882BF28
:1003000087B7816087BF0895282FE5E6F0E08081F8
:10031000807F8083408130E02150310981E090E08E
:1003200002C0880F991F2A95E2F7842B8083E62F5D
:10033000F0E0E050FF4F808120E1829FC001112456
:1003400092B39F70892B82BB908188B390778F7016
:10035000892B88BB0895CF93DF93D0E04EC0609186
:100360000B01CDEC6C9F612D112466956695669509
:1003700081E0CADF8FE19EE40197F1F700C0000041
:1003800060910B016C9F812D112486958695869531
:10039000880F982F990F990F890F681B82E0B4DF9F
:1003A0008FE19EE40197F1F700C0000060910C011D
:1003B0006C9F612D112466956695669583E0A4DF98
:1003C0008FE19EE40197F1F700C0000060910C01FD
:1003D0006C9FC12D1124C695C695C695CC0F8C2F48
:1003E000880F880FC80F6C1B84E08EDF8FE19EE4BE
:1003F0000197F1F700C00000DF5FD23008F4AFCF03
:10040000DF91CF9108955BDF6FDF75DF7894A3DF15
:10041000FECFA29FB001B39FC001A39F700D811DAD
:100420001124911DB29F700D811D1124911D0895FD
:04043000F894FFCF6E
:0A0434003F065B4F666D7D077F6F8A
:00000001FF
