S010000070726F6A656374322E73726563EB
S113000045C0000060C000005EC000005CC000008D
S11300105AC00000C3C00000D2C00000E1C000000C
S1130020F0C0000050C00000BAC300004CC0000083
S1130030DBC3000048C0000046C0000044C000000C
S113004081C3000040C0000071C400003CC0000037
S11300503AC0000039C0000036C0000034C00000BF
S113006032C0000030C000002EC000002CC00000D0
S11300702AC0000028C0000026C0000024C00000E0
S113008022C0000020C000001EC0000011241FBEBA
S1130090CFEFD0E1DEBFCDBF12E0A0E0B1E0ECE8ED
S11300A0FDE000E00BBF02C007900D92A233B10740
S11300B0D9F722E0A2E3B2E001C01D92A635B2074F
S11300C0E1F7CCD061C69CCF1F920F920FB60F926E
S11300D011242F938F939F93F89424B185B190E0CA
S11300E0982F8827820F911D9093330280933202B8
S11300F080913402813021F48BE08093340205C076
S1130100823019F485E18093340278949F918F9121
S11301102F910F900FBE0F901F901895809334026B
S113012087B1682B67B986B1806886B986B1886063
S113013086B986B1482B46B986B1876086B986B13F
S1130140806486B9089517B816B80895CF92DF92DF
S1130150EF92FF926B017C01609132027091330245
S1130160072E000C880B990BF9D420E030E040EA0C
S113017050E480D520E030E040E85AE37BD5A70185
S1130180960178D520E030E040E05FE350D4B3D46A
S1130190CB01FF90EF90DF90CF9008951F920F92C4
S11301A00FB60F9211248F93F89481E08093380254
S11301B078948F910F900FBE0F901F9018951F92F7
S11301C00F920FB60F9211248F93F89481E08093CD
S11301D0370278948F910F900FBE0F901F9018954F
S11301E01F920F920FB60F9211248F93F89481E00F
S11301F08093360278948F910F900FBE0F901F90CA
S113020018951F920F920FB60F9211248F93F894A2
S113021081E08093350278948F910F900FBE0F90F8
S11302201F90189589B7806189BF8AB783608ABF98
S1130230089589B7806289BF8AB788608ABF0895A4
S113024089B7806489BF8AB780638ABF089589B7F4
S1130250806889BF8AB780688ABF08958FEF84BB9E
S113026085BB4DD191D3EBD178948091000181303D
S113027019F410920001AED380913802813069F4F0
S11302801092380210923C025EDF4BD3F4D282E02B
S11302908093390284EF91E0CBD280913702813090
S11302A069F41092370210923C02809303014BDFF1
S11302B038D3CFD240E266E082E030DF809136026C
S11302C08130C1F41092360210923C02C1E0C09316
S11302D0030139DF26D3DCD286E091E069D3C093F1
S11302E039028CEA9DE0A4D286E191E09093020168
S11302F080930101809135028130C1F4109235025E
S113030010923C02C1E0C09303011DDF0AD3DAD28C
S113031088E291E04DD3C093390280EA9FE088D20D
S113032086E391E090930201809301018091490258
S11303308130B1F41092490280913902823019F46B
S1130340109239020DC0813059F410923902E9D269
S113035080910101909102012BD381E080930001EF
S113036080914B02813029F410924B0240E067E007
S1130370D5DE80914A028130D1F410924A028091F4
S11303803C028F5F80933C0260E070E088EC92E472
S1130390DDDE90933B0280933A0222D380913C02AB
S11303A08A3029F4BED2CFDE81E0809300018091AF
S11303B034028B3061F51092340210920301809163
S11303C03C028F5F80933C0260E070E08AE794E433
S11303D0BDDE90933B0280933A0268EE73E0ADD4A5
S11303E06093530264E670E0A8D4609355026AE017
S11303F070E0A3D4609352028093540280913C0233
S11304008A3029F481E0809303018BD29CDE8091B1
S11304103402853111F410923402809150028130FB
S113042049F410925002FEDE86E491E0C1D281E0EC
S11304308093000180914F02813031F410924F0279
S1130440F8DE87E591E0B4D280914E02813031F438
S113045010924E02F5DE88E691E0AAD280914D0218
S1130460813031F410924D02F2DE89E791E0A0D29E
S113047080910301882351F060913D0270913E0206
S113048080913F029091400245D0EFCE8091470287
S1130490909148029C0123703327232B39F46091F7
S11304A0530270E084E090E02ED1DFCE8370907828
S11304B0992324F401978C6F9F6F019681309105E5
S11304C039F46091550270E083E090E01CD1CDCE08
S11304D08230910551F46091520270E082E090E024
S11304E012D188B3806888BBC0CE039709F0BDCE13
S11304F06091540270E081E090E005D1B6CE80EFC7
S113050087BB81BB8FE08093640018BA12BA8093D2
S113051065000895CF92DF92EF92FF920F931F939D
S1130520E5E6F0E028E0208322B3362F3295307FD1
S11305302F70232B22BB28B3362F307F2F70232B11
S113054028BBAFE3BFE11197F1F700C0000024E03E
S113055020838B019C0100271F7022273327689476
S113056013F836952795179507951694D1F742B346
S11305704F70042B02BB6B017C01CC24B0EFDB2257
S1130580EE24FF2428B32F702D2928BBAFE3BFE14D
S11305901197F1F700C0000022E020838B019C0139
S11305A0002711272F7033270F2EFCE0369527954F
S11305B017950795FA95D1F7F02D42B34F70042B98
S11305C002BB6B017C01CC24DD24B0EFEB22FF24C1
S11305D028B32F702E2928BBAFE3BFE11197F1F7A1
S11305E000C0000021E020838B019C01002711271B
S11305F022273F700F2EF4E136952795179507951E
S1130600FA95D1F7F02D42B34F70042B02BBDC01F5
S1130610CB0188279927AA27B07F28B32F70822F70
S11306208B2B88BB8FE39FE10197F1F700C000009B
S11306301F910F91FF90EF90DF90CF9008950F934B
S11306401F93CF93DF93CDB7DEB728970FB6F894F7
S1130650DEBF0FBECDBF9BE599838FE38A839B8367
S11306602FE42C838D832E839F83888700E03DC0F5
S1130670E1E0F0E0EC0FFD1FE00FF11D208180911F
S11306803D0290913E02A0913F02B0914002822B24
S113069080933D0290933E02A0933F02B0934002A8
S11306A010E00AC060913D0270913E0280913F02C9
S11306B0909140022FDF1F5F1931A0F30730A1F0A2
S11306C080913D0290913E02A0913F02B091400280
S11306D0BA2FA92F982F882780933D0290933E022A
S11306E0A0933F02B09340020F5F083008F4C0CFDC
S11306F028960FB6F894DEBF0FBECDBFDF91CF9121
S11307001F910F91089524E030E0281B390B81E0FC
S113071090E002C0880F991F2A95E2F78093650044
S1130720FB01E557FE4F908180E1989F90011124D1
S113073082B38F70282B22BB88B390778F70892B5C
S113074088BB08951F920F920FB60F9211242F9316
S11307503F938F939F93F89480914702909148021E
S11307600196909348028093470220914102309170
S113077042028217930738F081E080934902109275
S113078048021092470283E882BF78949F918F9128
S11307903F912F910F900FBE0F901F9018951F92AD
S11307A00F920FB60F9211248F939F93F894809118
S11307B04302909144020196909344028093430231
S11307C0883C91053CF081E080934B0210924402F6
S11307D01092430286E084BD78949F918F910F908C
S11307E00FBE0F901F9018951F920F920FB60F9285
S11307F011248F939F93F89480914502909146021F
S1130800019690934602809345020A973CF081E05A
S113081080934A0210924602109245021DBC1CBCF1
S113082078949F918F910F900FBE0F901F90189501
S11308301092480210924702909342028093410220
S113084087B7816087BF83E882BF83B7866083BF31
S11308500895109246021092450287B7806187BFBF
S11308608EB588608EBD83E18BBD87E88ABD8EB569
S113087085608EBD0895109244021092430287B79A
S1130880806487BF86E084BD85B5856085BD089595
S113089082B1886082B9EBE8F0E08081806C80836B
S11308A0808182608083EAE8F0E0808188608083D0
S11308B083E38093870082E3809386008081836052
S11308C08083089582B1886082B9EBE8F0E080818A
S11308D0806C808380818260808383E3809387003F
S11308E082E380938600EAE8F0E08081836080837D
S11308F0089587B78E7F87BF13BE089587B78F7E0D
S113090087BF1EBC1BBC1ABC089515BC87B78F7B60
S113091087BF14BC089512B810928B0010928A00FD
S11309200895E7DFEBDFF1DFF6CF08951F920F9212
S11309300FB60F9211248F93F89481E080935102A3
S11309408CB180934C02853369F018F4843331F010
S113095014C0863359F0873369F00FC081E0809367
S113096050020BC081E080934F0207C081E0809366
S11309704E0203C081E080934D0278948F910F90D2
S11309800FBE0F901F9018958AB188618AB98AB1F9
S113099080688AB9E5E9F0E08081866080831092FE
S11309A0900087E689B908955D9BFECF8CB90895C0
S11309B00F931F93CF938C01C0E002C0F5DFCF5F8C
S11309C0F801EC0FF11D80818111F8CFCF911F91B7
S11309D00F9108958091040190910501E9CF089544
S11309E00F931F93CF93DF939C01CAE0D0E0BE0125
S11309F0A4D18C01C90164E670E09FD180E3860F25
S1130A00D3DF8EE2D1DFC801BE0197D1C82F80E3C6
S1130A10860FCADF80E38C0FC7DF86E5C5DF8DE074
S1130A20C3DFDF91CF911F910F9108955058BB27D9
S1130A30AA270ED0E5C0D6D030F0DBD020F031F4B8
S1130A409F3F11F41EF4CBC00EF4E095E7FBC1C048
S1130A50E92FE7D080F3BA17620773078407950775
S1130A6018F071F49EF5FFC00EF4E0950B2EBA2F2A
S1130A70A02D0B01B90190010C01CA01A0011124A0
S1130A80FF27591B99F0593F50F4503E68F11A164C
S1130A90F040A22F232F342F4427585FF3CF4695DD
S1130AA037952795A795F0405395C9F77EF41F16FF
S1130AB0BA0B620B730B840BBAF09150A1F0FF0FC9
S1130AC0BB1F661F771F881FC2F70EC0BA0F621FB5
S1130AD0731F841F48F4879577956795B795F795A5
S1130AE09E3F08F0B3CF9395880F08F09927EE0F37
S1130AF097958795089504D06894B111B5C0089569
S1130B0098D088F09F5790F0B92F9927B751A0F04B
S1130B10D1F0660F771F881F991F1AF0BA95C9F78D
S1130B2012C0B13081F09FD0B1E008959CC0672F0E
S1130B30782F8827B85F39F0B93FCCF3869577953D
S1130B406795B395D9F73EF4909580957095619526
S1130B507F4F8F4F9F4F0895E89409C097FB3EF451
S1130B6090958095709561957F4F8F4F9F4F9923F6
S1130B70A9F0F92F96E9BB279395F6958795779574
S1130B806795B795F111F8CFFAF4BB0F11F460FF34
S1130B901BC06F5F7F4F8F4F9F4F16C0882311F08C
S1130BA096E911C0772321F09EE8872F762F05C0A0
S1130BB0662371F096E8862F70E060E02AF09A953B
S1130BC0660F771F881FDAF7880F9695879597F930
S1130BD0089597F99F6780E870E060E008959FEFBB
S1130BE080EC089500240A941616170618060906C0
S1130BF0089500240A94121613061406050608958F
S1130C00092E0394000C11F4882352F0BB0F40F416
S1130C10BF2B11F460FF04C06F5F7F4F8F4F9F4F56
S1130C20089557FD9058440F551F59F05F3F71F0D8
S1130C304795880F97FB991F61F09F3F79F087953F
S1130C400895121613061406551FF2CF4695F1DFC8
S1130C5008C0161617061806991FF1CF8695710558
S1130C60610508940895E894BB2766277727CB018C
S1130C7097F908950BD0C4CFB5DF28F0BADF18F088
S1130C80952309F0A6CFABCF1124EECFCADFA0F392
S1130C90959FD1F3950F50E0551F629FF001729F0D
S1130CA0BB27F00DB11D639FAA27F00DB11DAA1F2C
S1130CB0649F6627B00DA11D661F829F2227B00D79
S1130CC0A11D621F739FB00DA11D621F839FA00D04
S1130CD0611D221F749F3327A00D611D231F849F54
S1130CE0600D211D822F762F6A2F11249F575040AB
S1130CF08AF0E1F088234AF0EE0FFF1FBB1F661F46
S1130D00771F881F91505040A9F79E3F510570F0FE
S1130D1060CFAACF5F3FECF3983EDCF386957795DE
S1130D206795B795F795E7959F5FC1F7FE2B880FF9
S1130D30911D9695879597F9089597FB072E16F4BC
S1130D40009406D077FD08D00BD007FC05D03EF404
S1130D50909581959F4F0895709561957F4F089563
S1130D60AA1BBB1B51E107C0AA1FBB1FA617B707CD
S1130D7010F0A61BB70B881F991F5A95A9F78095E9
S10F0D809095BC01CD010895F894FFCFBC
S1130D8C018A01019501464153542050574D20537B
S1130D9C544152540D00464153542050574D205346
S1130DAC544F505045440D0050432050574D205340
S1130DBC544152540D0050432050574D2053544F1E
S1130DCC505045440D00454E41424C452045494E3A
S1130DDC54342E2E2E0D00454E41424C452045498F
S1130DEC4E54352E2E2E0D00454E41424C45204579
S1130DFC494E54362E2E2E0D00454E41424C452064
S1130E0C45494E54372E2E2E200D003F065B4F665F
S1130E1C6D7D077F6F45585445524E414C20494EC9
S1130E2C54455252555054204D454E550D45585429
S1130E3C45524E414C20494E544552525550542023
S1130E4C34202874797065203429200D4558544574
S1130E5C524E414C20494E54455252555054203513
S1130E6C202874797065203529200D455854455235
S1130E7C4E414C20494E5445525255505420362024
S1130E8C2874797065203629200D45585445524EE6
S1130E9C414C20494E544552525550542037202829
S1130EAC74797065203729200D454E544552203AEB
S1050EBC200010
S9030000FC
