S0150000554152545F50726163746963652E7372656349
S113000045C000004BC0000049C0000047C00000CC
S113001045C0000043C0000041C000003FC00000D4
S11300203DC000003BC0000039C0000037C00000E4
S113003035C0000033C0000031C000002FC00000F4
S11300402DC000002BC0000029C0000027C0000004
S113005025C0000023C0000021C000001FC0000014
S11300601DC000001BC0000019C0000017C0000024
S113007015C0000013C0000011C000000FC0000034
S11300800DC000000BC0000009C0000011241FBEF9
S1130090CFEFD0E1DEBFCDBF02D027C0B1CF21D09A
S11300A080E090E00895109298008FEC809399007E
S11300B0EBE9F0E0808182608083EDE9F0E080810B
S11300C086608083089590919B0095FFFCCF809378
S11300D09C00089580919B008823E4F780919C0004
S11100E00895E1DFF7DFEFDFFDCFF894FFCFE7
S9030000FC
